{
  "contractName": "DonationTransparency",
  "abi": [
    {
      "anonymous": false,
      "inputs": [
        {
          "indexed": true,
          "internalType": "address",
          "name": "donor",
          "type": "address"
        },
        {
          "indexed": false,
          "internalType": "uint256",
          "name": "amount",
          "type": "uint256"
        },
        {
          "indexed": false,
          "internalType": "string",
          "name": "purpose",
          "type": "string"
        },
        {
          "indexed": false,
          "internalType": "uint256",
          "name": "timestamp",
          "type": "uint256"
        }
      ],
      "name": "DonationMade",
      "type": "event"
    },
    {
      "inputs": [
        {
          "internalType": "uint256",
          "name": "",
          "type": "uint256"
        }
      ],
      "name": "donations",
      "outputs": [
        {
          "internalType": "address",
          "name": "donor",
          "type": "address"
        },
        {
          "internalType": "uint256",
          "name": "amount",
          "type": "uint256"
        },
        {
          "internalType": "string",
          "name": "purpose",
          "type": "string"
        },
        {
          "internalType": "uint256",
          "name": "timestamp",
          "type": "uint256"
        }
      ],
      "stateMutability": "view",
      "type": "function",
      "constant": true
    },
    {
      "inputs": [
        {
          "internalType": "string",
          "name": "_purpose",
          "type": "string"
        }
      ],
      "name": "donate",
      "outputs": [],
      "stateMutability": "payable",
      "type": "function",
      "payable": true
    },
    {
      "inputs": [],
      "name": "getDonationCount",
      "outputs": [
        {
          "internalType": "uint256",
          "name": "",
          "type": "uint256"
        }
      ],
      "stateMutability": "view",
      "type": "function",
      "constant": true
    },
    {
      "inputs": [
        {
          "internalType": "uint256",
          "name": "_index",
          "type": "uint256"
        }
      ],
      "name": "getDonation",
      "outputs": [
        {
          "internalType": "address",
          "name": "",
          "type": "address"
        },
        {
          "internalType": "uint256",
          "name": "",
          "type": "uint256"
        },
        {
          "internalType": "string",
          "name": "",
          "type": "string"
        },
        {
          "internalType": "uint256",
          "name": "",
          "type": "uint256"
        }
      ],
      "stateMutability": "view",
      "type": "function",
      "constant": true
    }
  ],
  "bytecode": "0x608060405234801561000f575f80fd5b50610c3d8061001d5f395ff3fe60806040526004361061003e575f3560e01c8063b5aebc8014610042578063e55a62a81461005e578063ef07a81f14610088578063f8626af8146100c7575b5f80fd5b61005c60048036038101906100579190610635565b610106565b005b348015610069575f80fd5b5061007261026b565b60405161007f9190610694565b60405180910390f35b348015610093575f80fd5b506100ae60048036038101906100a991906106d7565b610276565b6040516100be94939291906107bb565b60405180910390f35b3480156100d2575f80fd5b506100ed60048036038101906100e891906106d7565b610409565b6040516100fd94939291906107bb565b60405180910390f35b5f3411610148576040517f08c379a000000000000000000000000000000000000000000000000000000000815260040161013f9061084f565b60405180910390fd5b5f60405180608001604052803373ffffffffffffffffffffffffffffffffffffffff16815260200134815260200183815260200142815250908060018154018082558091505060019003905f5260205f2090600402015f909190919091505f820151815f015f6101000a81548173ffffffffffffffffffffffffffffffffffffffff021916908373ffffffffffffffffffffffffffffffffffffffff1602179055506020820151816001015560408201518160020190816102099190610a67565b506060820151816003015550503373ffffffffffffffffffffffffffffffffffffffff167f8580ecae95ac2e0205deed43d40b277d8d0329bbd0adeb855e64c9e88737340f34834260405161026093929190610b36565b60405180910390a250565b5f8080549050905090565b5f8060605f808054905085106102c1576040517f08c379a00000000000000000000000000000000000000000000000000000000081526004016102b890610bbc565b60405180910390fd5b5f8086815481106102d5576102d4610bda565b5b905f5260205f2090600402016040518060800160405290815f82015f9054906101000a900473ffffffffffffffffffffffffffffffffffffffff1673ffffffffffffffffffffffffffffffffffffffff1673ffffffffffffffffffffffffffffffffffffffff1681526020016001820154815260200160028201805461035a9061089a565b80601f01602080910402602001604051908101604052809291908181526020018280546103869061089a565b80156103d15780601f106103a8576101008083540402835291602001916103d1565b820191905f5260205f20905b8154815290600101906020018083116103b457829003601f168201915b505050505081526020016003820154815250509050805f01518160200151826040015183606001519450945094509450509193509193565b5f8181548110610417575f80fd5b905f5260205f2090600402015f91509050805f015f9054906101000a900473ffffffffffffffffffffffffffffffffffffffff16908060010154908060020180546104619061089a565b80601f016020809104026020016040519081016040528092919081815260200182805461048d9061089a565b80156104d85780601f106104af576101008083540402835291602001916104d8565b820191905f5260205f20905b8154815290600101906020018083116104bb57829003601f168201915b5050505050908060030154905084565b5f604051905090565b5f80fd5b5f80fd5b5f80fd5b5f80fd5b5f601f19601f8301169050919050565b7f4e487b71000000000000000000000000000000000000000000000000000000005f52604160045260245ffd5b61054782610501565b810181811067ffffffffffffffff8211171561056657610565610511565b5b80604052505050565b5f6105786104e8565b9050610584828261053e565b919050565b5f67ffffffffffffffff8211156105a3576105a2610511565b5b6105ac82610501565b9050602081019050919050565b828183375f83830152505050565b5f6105d96105d484610589565b61056f565b9050828152602081018484840111156105f5576105f46104fd565b5b6106008482856105b9565b509392505050565b5f82601f83011261061c5761061b6104f9565b5b813561062c8482602086016105c7565b91505092915050565b5f6020828403121561064a576106496104f1565b5b5f82013567ffffffffffffffff811115610667576106666104f5565b5b61067384828501610608565b91505092915050565b5f819050919050565b61068e8161067c565b82525050565b5f6020820190506106a75f830184610685565b92915050565b6106b68161067c565b81146106c0575f80fd5b50565b5f813590506106d1816106ad565b92915050565b5f602082840312156106ec576106eb6104f1565b5b5f6106f9848285016106c3565b91505092915050565b5f73ffffffffffffffffffffffffffffffffffffffff82169050919050565b5f61072b82610702565b9050919050565b61073b81610721565b82525050565b5f81519050919050565b5f82825260208201905092915050565b5f5b8381101561077857808201518184015260208101905061075d565b5f8484015250505050565b5f61078d82610741565b610797818561074b565b93506107a781856020860161075b565b6107b081610501565b840191505092915050565b5f6080820190506107ce5f830187610732565b6107db6020830186610685565b81810360408301526107ed8185610783565b90506107fc6060830184610685565b95945050505050565b7f446f6e6174696f6e206d7573742062652067726561746572207468616e2030005f82015250565b5f610839601f8361074b565b915061084482610805565b602082019050919050565b5f6020820190508181035f8301526108668161082d565b9050919050565b7f4e487b71000000000000000000000000000000000000000000000000000000005f52602260045260245ffd5b5f60028204905060018216806108b157607f821691505b6020821081036108c4576108c361086d565b5b50919050565b5f819050815f5260205f209050919050565b5f6020601f8301049050919050565b5f82821b905092915050565b5f600883026109267fffffffffffffffffffffffffffffffffffffffffffffffffffffffffffffffff826108eb565b61093086836108eb565b95508019841693508086168417925050509392505050565b5f819050919050565b5f61096b6109666109618461067c565b610948565b61067c565b9050919050565b5f819050919050565b61098483610951565b61099861099082610972565b8484546108f7565b825550505050565b5f90565b6109ac6109a0565b6109b781848461097b565b505050565b5b818110156109da576109cf5f826109a4565b6001810190506109bd565b5050565b601f821115610a1f576109f0816108ca565b6109f9846108dc565b81016020851015610a08578190505b610a1c610a14856108dc565b8301826109bc565b50505b505050565b5f82821c905092915050565b5f610a3f5f1984600802610a24565b1980831691505092915050565b5f610a578383610a30565b9150826002028217905092915050565b610a7082610741565b67ffffffffffffffff811115610a8957610a88610511565b5b610a93825461089a565b610a9e8282856109de565b5f60209050601f831160018114610acf575f8415610abd578287015190505b610ac78582610a4c565b865550610b2e565b601f198416610add866108ca565b5f5b82811015610b0457848901518255600182019150602085019450602081019050610adf565b86831015610b215784890151610b1d601f891682610a30565b8355505b6001600288020188555050505b505050505050565b5f606082019050610b495f830186610685565b8181036020830152610b5b8185610783565b9050610b6a6040830184610685565b949350505050565b7f496e76616c696420696e646578000000000000000000000000000000000000005f82015250565b5f610ba6600d8361074b565b9150610bb182610b72565b602082019050919050565b5f6020820190508181035f830152610bd381610b9a565b9050919050565b7f4e487b71000000000000000000000000000000000000000000000000000000005f52603260045260245ffdfea2646970667358221220d5bbeba82665780a9c0b8ebc7a70075174824fe75a64ca806de547e65a5236d464736f6c63430008140033",
  "immutableReferences": {},
  "source": "// SPDX-License-Identifier: MIT\npragma solidity ^0.8.0;\n\ncontract DonationTransparency {\n    struct Donation {\n        address donor;\n        uint256 amount;\n        string purpose;\n        uint256 timestamp;\n    }\n\n    Donation[] public donations;\n\n    event DonationMade(address indexed donor, uint256 amount, string purpose, uint256 timestamp);\n\n    function donate(string memory _purpose) public payable {\n        require(msg.value > 0, \"Donation must be greater than 0\");\n\n        donations.push(Donation({\n            donor: msg.sender,\n            amount: msg.value,\n            purpose: _purpose,\n            timestamp: block.timestamp\n        }));\n\n        emit DonationMade(msg.sender, msg.value, _purpose, block.timestamp);\n    }\n\n    function getDonationCount() public view returns (uint256) {\n        return donations.length;\n    }\n\n    function getDonation(uint256 _index) public view returns (address, uint256, string memory, uint256) {\n        require(_index < donations.length, \"Invalid index\");\n        Donation memory d = donations[_index];\n        return (d.donor, d.amount, d.purpose, d.timestamp);\n    }\n}",
  "sourcePath": "/home/user/Downloads/donation-truffle/donation-truffle/contracts/DonationTransparency.sol",
  "compiler": {
    "name": "solc",
    "version": "0.8.20+commit.a1b79de6.Emscripten.clang"
  },
  "schemaVersion": "3.4.16",
  "updatedAt": "2026-03-28T08:08:42.687Z",
  "networkType": "ethereum",
  "devdoc": {
    "kind": "dev",
    "methods": {},
    "version": 1
  },
  "userdoc": {
    "kind": "user",
    "methods": {},
    "version": 1
  }
}